{
  "contractName": "DemandBid",
  "abi": [
    {
      "constant": true,
      "inputs": [],
      "name": "auctionLength",
      "outputs": [
        {
          "name": "",
          "type": "uint256"
        }
      ],
      "payable": false,
      "stateMutability": "view",
      "type": "function"
    },
    {
      "inputs": [
        {
          "name": "_auctionLength",
          "type": "uint256"
        }
      ],
      "payable": false,
      "stateMutability": "nonpayable",
      "type": "constructor"
    },
    {
      "anonymous": false,
      "inputs": [
        {
          "indexed": true,
          "name": "accountAddress",
          "type": "address"
        },
        {
          "indexed": false,
          "name": "prediction",
          "type": "uint256"
        },
        {
          "indexed": false,
          "name": "dayNumber",
          "type": "uint256"
        }
      ],
      "name": "BetSubmission",
      "type": "event"
    },
    {
      "anonymous": false,
      "inputs": [
        {
          "indexed": false,
          "name": "day_number",
          "type": "uint256"
        },
        {
          "indexed": false,
          "name": "amount",
          "type": "uint256"
        }
      ],
      "name": "AuctionEnded",
      "type": "event"
    },
    {
      "constant": false,
      "inputs": [
        {
          "name": "_blindedBid",
          "type": "bytes32"
        }
      ],
      "name": "submitBet",
      "outputs": [],
      "payable": true,
      "stateMutability": "payable",
      "type": "function"
    },
    {
      "constant": false,
      "inputs": [],
      "name": "nextDay",
      "outputs": [],
      "payable": false,
      "stateMutability": "nonpayable",
      "type": "function"
    },
    {
      "constant": false,
      "inputs": [],
      "name": "getNow",
      "outputs": [
        {
          "name": "",
          "type": "uint256"
        }
      ],
      "payable": false,
      "stateMutability": "nonpayable",
      "type": "function"
    },
    {
      "constant": false,
      "inputs": [
        {
          "name": "_prediction",
          "type": "uint256"
        }
      ],
      "name": "withdraw",
      "outputs": [],
      "payable": false,
      "stateMutability": "nonpayable",
      "type": "function"
    },
    {
      "constant": true,
      "inputs": [],
      "name": "getRewardAmount",
      "outputs": [
        {
          "name": "",
          "type": "uint256"
        }
      ],
      "payable": false,
      "stateMutability": "view",
      "type": "function"
    },
    {
      "constant": true,
      "inputs": [],
      "name": "getDayCount",
      "outputs": [
        {
          "name": "",
          "type": "uint256"
        }
      ],
      "payable": false,
      "stateMutability": "view",
      "type": "function"
    },
    {
      "constant": false,
      "inputs": [],
      "name": "setSettlementValue",
      "outputs": [],
      "payable": false,
      "stateMutability": "nonpayable",
      "type": "function"
    }
  ],
  "bytecode": "0x6080604052604051610010906100c3565b604051809103906000f08015801561002c573d6000803e3d6000fd5b50600160006101000a81548173ffffffffffffffffffffffffffffffffffffffff021916908373ffffffffffffffffffffffffffffffffffffffff160217905550600060045534801561007e57600080fd5b506040516020806116878339810180604052602081101561009e57600080fd5b81019080805190602001909291905050504260058190555080600081905550506100d0565b610d9c806108eb83390190565b61080c806100df6000396000f3fe60806040526004361061007b5760003560e01c8063bbe4fd501161004e578063bbe4fd5014610128578063bfb294b214610153578063d99ccc2d1461016a578063eb60764f146101985761007b565b806309a69f57146100805780632d1558aa146100ab5780632e1a7d4d146100c2578063325c25a2146100fd575b600080fd5b34801561008c57600080fd5b506100956101c3565b6040518082815260200191505060405180910390f35b3480156100b757600080fd5b506100c061021e565b005b3480156100ce57600080fd5b506100fb600480360360208110156100e557600080fd5b8101908080359060200190929190505050610243565b005b34801561010957600080fd5b50610112610384565b6040518082815260200191505060405180910390f35b34801561013457600080fd5b5061013d61038a565b6040518082815260200191505060405180910390f35b34801561015f57600080fd5b50610168610397565b005b6101966004803603602081101561018057600080fd5b8101908080359060200190929190505050610443565b005b3480156101a457600080fd5b506101ad6106ef565b6040518082815260200191505060405180910390f35b6000600260003373ffffffffffffffffffffffffffffffffffffffff1673ffffffffffffffffffffffffffffffffffffffff168152602001908152602001600020600080815260200190815260200160002060030154905090565b600054620151806005544203018161023257fe5b04600481905550610241610397565b565b60005460055442038161025257fe5b04600481905550600260003373ffffffffffffffffffffffffffffffffffffffff1673ffffffffffffffffffffffffffffffffffffffff1681526020019081526020016000206000600460008154809291906001900391905055815260200190815260200160002060040160009054906101000a900460ff16610381576000600260003373ffffffffffffffffffffffffffffffffffffffff1673ffffffffffffffffffffffffffffffffffffffff168152602001908152602001600020600060046000815480929190600190039190505581526020019081526020016000206003015490503373ffffffffffffffffffffffffffffffffffffffff166108fc829081150290604051600060405180830381858888f1935050505015801561037e573d6000803e3d6000fd5b50505b50565b60005481565b6000804290508091505090565b6000546005544203816103a657fe5b04600481905550611068600360006004600081548092919060019003919050558152602001908152602001600020600301819055506103e3610705565b6003600060046000815480929190600190039190505581526020019081526020016000206004018190555061041661075e565b60036000600460008154809291906001900391905055815260200190815260200160002060050181905550565b6000341161049c576040517f08c379a00000000000000000000000000000000000000000000000000000000081526004018080602001828103825260298152602001806107b86029913960400191505060405180910390fd5b6004546000546005544203816104ae57fe5b04146104cb576000546005544203816104c357fe5b046004819055505b34600260003373ffffffffffffffffffffffffffffffffffffffff1673ffffffffffffffffffffffffffffffffffffffff168152602001908152602001600020600060045481526020019081526020016000206000018190555080600260003373ffffffffffffffffffffffffffffffffffffffff1673ffffffffffffffffffffffffffffffffffffffff168152602001908152602001600020600060045481526020019081526020016000206002018190555034600260003373ffffffffffffffffffffffffffffffffffffffff1673ffffffffffffffffffffffffffffffffffffffff16815260200190815260200160002060006004548152602001908152602001600020600301819055506000600260003373ffffffffffffffffffffffffffffffffffffffff1673ffffffffffffffffffffffffffffffffffffffff1681526020019081526020016000206000600454815260200190815260200160002060040160006101000a81548160ff02191690831515021790555034600360006004548152602001908152602001600020600201600082825401925050819055506001600360006004548152602001908152602001600020600101600082825401925050819055503373ffffffffffffffffffffffffffffffffffffffff167f3701903606470030258eea641d221e8d1f29aa09307fbb755a0711fb419c544b34600454604051808381526020018281526020019250505060405180910390a250565b600080546005544203816106ff57fe5b04905090565b6000805460055442038161071557fe5b046004819055506014600360006004548152602001908152602001600020600301548161073e57fe5b046003600060045481526020019081526020016000206003015401905090565b6000805460055442038161076e57fe5b046004819055506014600360006004548152602001908152602001600020600301548161079757fe5b04600360006004548152602001908152602001600020600301540390509056fe5468652062657420616d6f756e74206e6565647320746f2062652067726561746572207468616e2030a165627a7a7230582078950293412adda8952639a3b1d9ff13a44d30aae1752ff08a968c0a711010010029608060405234801561001057600080fd5b50610d7c806100206000396000f3fe608060405234801561001057600080fd5b50600436106100ea5760003560e01c80639054bdec1161008c578063a6f0e57711610066578063a6f0e5771461046f578063b1999937146104b9578063b238ad0e146104fb578063fa93f88314610554576100ea565b80639054bdec1461035657806392d66313146103dd578063a324ad2414610427576100ea565b806365c72840116100c857806365c72840146101f95780637f791833146102415780638aa001fc146102ae5780638c8d98a0146102f6576100ea565b80633e239e1a146100ef5780634ac1ad781461013757806362ba96871461017f575b600080fd5b61011b6004803603602081101561010557600080fd5b810190808035906020019092919050505061059c565b604051808260ff1660ff16815260200191505060405180910390f35b6101636004803603602081101561014d57600080fd5b81019080803590602001909291905050506105c3565b604051808260ff1660ff16815260200191505060405180910390f35b6101e3600480360360a081101561019557600080fd5b81019080803561ffff169060200190929190803560ff169060200190929190803560ff169060200190929190803560ff169060200190929190803560ff1690602001909291905050506105e6565b6040518082815260200191505060405180910390f35b6102256004803603602081101561020f57600080fd5b8101908080359060200190929190505050610602565b604051808260ff1660ff16815260200191505060405180910390f35b6102986004803603608081101561025757600080fd5b81019080803561ffff169060200190929190803560ff169060200190929190803560ff169060200190929190803560ff169060200190929190505050610618565b6040518082815260200191505060405180910390f35b6102da600480360360208110156102c457600080fd5b8101908080359060200190929190505050610633565b604051808260ff1660ff16815260200191505060405180910390f35b6103406004803603606081101561030c57600080fd5b81019080803561ffff169060200190929190803560ff169060200190929190803560ff169060200190929190505050610647565b6040518082815260200191505060405180910390f35b6103c7600480360360c081101561036c57600080fd5b81019080803561ffff169060200190929190803560ff169060200190929190803560ff169060200190929190803560ff169060200190929190803560ff169060200190929190803560ff169060200190929190505050610662565b6040518082815260200191505060405180910390f35b610409600480360360208110156103f357600080fd5b81019080803590602001909291905050506108ed565b604051808261ffff1661ffff16815260200191505060405180910390f35b6104536004803603602081101561043d57600080fd5b8101908080359060200190929190505050610996565b604051808260ff1660ff16815260200191505060405180910390f35b61049f6004803603602081101561048557600080fd5b81019080803561ffff1690602001909291905050506109ac565b604051808215151515815260200191505060405180910390f35b6104e5600480360360208110156104cf57600080fd5b8101908080359060200190929190505050610a21565b6040518082815260200191505060405180910390f35b6105386004803603604081101561051157600080fd5b81019080803560ff169060200190929190803561ffff169060200190929190505050610a54565b604051808260ff1660ff16815260200191505060405180910390f35b6105806004803603602081101561056a57600080fd5b8101908080359060200190929190505050610b20565b604051808260ff1660ff16815260200191505060405180910390f35b60006018603c8084816105ab57fe5b04816105b357fe5b04816105bb57fe5b069050919050565b6000600760046201518084816105d557fe5b0401816105de57fe5b069050919050565b60006105f786868686866000610662565b905095945050505050565b600061060d82610b3d565b604001519050919050565b600061062985858585600080610662565b9050949350505050565b6000603c828161063f57fe5b069050919050565b60006106598484846000806000610662565b90509392505050565b6000806107b290505b8761ffff168161ffff1610156106ae57610684816109ac565b15610697576301e28500820191506106a1565b6301e13380820191505b808060010191505061066b565b6106b6610cda565b601f816000600c81106106c557fe5b602002019060ff16908160ff16815250506106df896109ac565b1561070957601d816001600c81106106f357fe5b602002019060ff16908160ff168152505061072a565b601c816001600c811061071857fe5b602002019060ff16908160ff16815250505b601f816002600c811061073957fe5b602002019060ff16908160ff1681525050601e816003600c811061075957fe5b602002019060ff16908160ff1681525050601f816004600c811061077957fe5b602002019060ff16908160ff1681525050601e816005600c811061079957fe5b602002019060ff16908160ff1681525050601f816006600c81106107b957fe5b602002019060ff16908160ff1681525050601f816007600c81106107d957fe5b602002019060ff16908160ff1681525050601e816008600c81106107f957fe5b602002019060ff16908160ff1681525050601f816009600c811061081957fe5b602002019060ff16908160ff1681525050601e81600a600c811061083957fe5b602002019060ff16908160ff1681525050601f81600b600c811061085957fe5b602002019060ff16908160ff1681525050600191505b8760ff168261ffff1610156108af57806001830361ffff16600c811061089157fe5b602002015160ff16620151800283019250818060010192505061086f565b6001870360ff166201518002830192508560ff16610e1002830192508460ff16603c02830192508360ff168301925082925050509695505050505050565b600080600090506000806301e13380858161090457fe5b046107b261ffff1601915061091e6107b261ffff16610a21565b61092b8361ffff16610a21565b039050806301e285000283019250806107b2830361ffff16036301e1338002830192505b8483111561098b57610963600183036109ac565b15610976576301e2850083039250610980565b6301e13380830392505b60018203915061094f565b819350505050919050565b60006109a182610b3d565b602001519050919050565b60008060048361ffff16816109bd57fe5b0661ffff16146109d05760009050610a1c565b600060648361ffff16816109e057fe5b0661ffff16146109f35760019050610a1c565b60006101908361ffff1681610a0457fe5b0661ffff1614610a175760009050610a1c565b600190505b919050565b60006001820391506101908281610a3457fe5b0460648381610a3f57fe5b0460048481610a4a57fe5b0403019050919050565b600060018360ff161480610a6b575060038360ff16145b80610a79575060058360ff16145b80610a87575060078360ff16145b80610a95575060088360ff16145b80610aa35750600a8360ff16145b80610ab15750600c8360ff16145b15610abf57601f9050610b1a565b60048360ff161480610ad4575060068360ff16145b80610ae2575060098360ff16145b80610af05750600b8360ff16145b15610afe57601e9050610b1a565b610b07826109ac565b15610b1557601d9050610b1a565b601c90505b92915050565b6000603c808381610b2d57fe5b0481610b3557fe5b069050919050565b610b45610cfd565b6000809050600080610b56856108ed565b846000019061ffff16908161ffff1681525050610b786107b261ffff16610a21565b610b89856000015161ffff16610a21565b039150816301e285000283019250816107b285600001510361ffff16036301e1338002830192506000600191505b600c8260ff1611610c0d57610bd0828660000151610a54565b60ff1662015180029050858482011115610bfb5781856020019060ff16908160ff1681525050610c0d565b80840193508180600101925050610bb7565b600191505b610c2485602001518660000151610a54565b60ff168260ff1611610c6957858462015180011115610c545781856040019060ff16908160ff1681525050610c69565b62015180840193508180600101925050610c12565b610c728661059c565b856060019060ff16908160ff1681525050610c8c86610b20565b856080019060ff16908160ff1681525050610ca686610633565b8560a0019060ff16908160ff1681525050610cc0866105c3565b8560c0019060ff16908160ff168152505050505050919050565b604051806101800160405280600c90602082028038833980820191505090505090565b6040518060e00160405280600061ffff168152602001600060ff168152602001600060ff168152602001600060ff168152602001600060ff168152602001600060ff168152602001600060ff168152509056fea165627a7a723058201516ec33c7791ad6fc3d3ac528b82ff289a1afdbc15ad894824fff37e97ee7be0029",
  "source": "pragma solidity >=0.4.21 <0.6.0;\n//import \"github.com/OpenZeppelin/zeppelin-solidity/contracts/math/SafeMath.sol\";\n//import \"github.com/Arachnid/solidity-stringutils/strings.sol\";\nimport \"./DateTime.sol\";\n\ncontract DemandBid {\n    //length of round (24 hours, 00:00 - 23:59:59:99)\n    uint public auctionLength;\n\n    DateTime date = new DateTime();\n    //SafeMath safeMath = new SafeMath();\n\n    //uint256 is the date\n    mapping (address => mapping (uint => Bet_Info)) agent_details;\n    mapping (uint => Round) round_info;\n\n    //initialises day = 0\n    uint currentDay = 0;\n    uint secondInit;\n\n    constructor(uint _auctionLength) public {\n        secondInit = now;\n        auctionLength = _auctionLength;\n    }\n\n    struct Round {\n        uint date;\n        uint number_of_players;\n        uint total_pot;\n        uint settlement_value;\n        uint higherInterval;\n        uint lowerInterval;\n        uint number_agent_inside_interval;\n        uint sum_relativeness;\n    }\n\n    struct Bet_Info {\n        uint betAmount;\n        uint prediction;\n        bytes32 hash_prediction;\n        uint reward;\n        bool claimed;\n        bool bet_hashes_correct;\n        bool insideInterval;\n        uint relativeness;\n    }\n\n\n\n    // Log the event about a bet submission being made by an address and its prediction\n    event BetSubmission(address indexed accountAddress, uint prediction, uint dayNumber);\n    // Calculate the shares that agent won\n    event AuctionEnded(uint day_number, uint amount);\n\n\n    //https://emn178.github.io/online-tools/keccak_256.html\n    //Agent needs to go to this website to hash the bet first\n    function submitBet(bytes32 _blindedBid) public payable {\n\n        require (msg.value > 0, \"The bet amount needs to be greater than 0\");\n\n\n        //check if\n        if (((now - secondInit) / auctionLength) != currentDay) {\n\n              currentDay = (now - secondInit) / auctionLength;\n              //calculate rewards for previous day\n\n        }\n\n\n        agent_details[msg.sender][currentDay].betAmount = msg.value;\n        //agent_details[msg.sender][currentDay].prediction = _prediction;\n        agent_details[msg.sender][currentDay].hash_prediction = _blindedBid;\n\n        // PS needs to initialise the reward = 0 after getting commit reveal scheme to work\n        agent_details[msg.sender][currentDay].reward = msg.value;\n\n        agent_details[msg.sender][currentDay].claimed = false;\n        round_info[currentDay].total_pot += msg.value;\n        round_info[currentDay].number_of_players += 1;\n        emit BetSubmission(msg.sender, msg.value, currentDay);\n\n        //for testing\n        //nextDay();\n\n\n    }\n\n    //Only use for testing\n    function nextDay() public {\n        //add 86400sec to now - secondInit\n        currentDay = (now - secondInit + 1 days) / auctionLength;\n        setSettlementValue();\n    }\n\n    function getNow() public returns (uint) {\n        uint x = now;\n        return x;\n    }\n\n\n    function withdraw(uint _prediction) public {\n\n        //uint total_sum = 0;\n        // currentDay = (now - secondInit) / auctionLength;\n        // for (uint i = currentDay; i >= 0; i--) {\n        //     if (!agent_details[msg.sender][i].claimed) {\n        //         (msg.sender).transfer(agent_details[msg.sender][i].reward);\n        //     } else {\n        //         /*if (agent_details[msg.sender][i].bet_hashes_correct) {\n\n        //         }*/\n        //         //total_sum =  SafeMath.add(agent_details[msg.sender][i].reward, total_sum);\n        //         //agent_details[msg.sender][i].claimed = true;\n\n        //         break;\n        //     }\n        // }\n\n        /*if (total_sum >= 0) {\n            (msg.sender).transfer(1 ether);\n        }*/\n\n\n        //(msg.sender).transfer(1 ether);\n\n        currentDay = (now - secondInit) / auctionLength;\n\n        if (!agent_details[msg.sender][currentDay--].claimed) {\n            uint ytdReward = agent_details[msg.sender][currentDay--].reward;\n\n            (msg.sender).transfer((ytdReward));\n        }\n\n    }\n\n    function getRewardAmount() public view returns (uint) {\n        return agent_details[msg.sender][0].reward;\n\n    }\n\n    //return the day that the auction is in right now\n    function getDayCount() public view returns (uint) {\n      return (now - secondInit) / auctionLength;\n    }\n\n    function findHighestInterval() private returns (uint) {\n        currentDay = (now - secondInit) / auctionLength;\n        return round_info[currentDay].settlement_value + round_info[currentDay].settlement_value / 20;\n    }\n\n    function findLowestInterval() private returns (uint) {\n        currentDay = (now - secondInit) / auctionLength;\n        return round_info[currentDay].settlement_value - round_info[currentDay].settlement_value / 20;\n    }\n\n  //get settlementValue from energy supplier and set the settlement Value\n  function setSettlementValue() public {\n    //settlementValue = get_settlement_from_energy_supplier();\n    currentDay = (now - secondInit) / auctionLength;\n    round_info[(currentDay--)].settlement_value = 4200;\n    round_info[(currentDay--)].higherInterval = findHighestInterval();\n    round_info[(currentDay--)].lowerInterval = findLowestInterval();\n  }\n\n  //user needs to insert the length of their guess value that is inside the _predictionAndPassword\n  //get the prediction by the first _guessLength in _predictionAndPassword\n//   function revealBet(uint _guessLength, string memory _predictionAndPassword) public {\n//       currentDay = (now - secondInit) / auctionLength;\n//       //check if the keccak of the _predictionAndPassword is the same as the one inserted in submitBet\n//       uint _prediction = hashSlicing(_guessLength, _predictionAndPassword);\n//       agent_details[msg.sender][currentDay--].prediction = _prediction;\n\n\n//       //then compare keccak256(_predictionAndPassword) and the prediction (in hashes)\n\n//   }\n\n  //returns the prediction from the _predictionAndPassword string(bytes32)\n  //by slicing the string using index\n//   function hashSlicing(uint _index, string memory _string) public pure returns (uint) {\n\n//         //slice string\n//         bytes memory a = new bytes(_index);\n//         for(uint i=0;i<=_index-1;i++){\n//             a[i] = bytes(_string)[i];\n//         }\n\n//         //convert string to uint\n//         uint result = stringToUint(string(a));\n//         return result;\n//   }\n\n//   function getSlice(uint begin, uint end, string memory text) public pure returns (string memory) {\n//         bytes memory a = new bytes(end-begin+1);\n//         for(uint i=0;i<=end-begin;i++){\n//             a[i] = bytes(text)[i+begin-1];\n//         }\n//         return string(a);\n//     }\n\n  //convert string to uint\n//   function stringToUint(string memory _s) public pure returns (uint result) {\n//       bytes memory b = bytes(_s);\n//       result = 0;\n//       for (uint i = 0; i < b.length; i++) {\n//           if (b[i] >= 48 && b[i] <= 57) {\n//               result = result * 10 + (uint(b[i]) - 48);\n//           }\n//       }\n//       return result;\n//   }\n\n//   function uintToString(uint v) public pure returns (string memory str) {\n//         uint maxlength = 100;\n//         bytes memory reversed = new bytes(maxlength);\n//         uint i = 0;\n//         while (v != 0) {\n//             uint remainder = v % 10;\n//             v = v / 10;\n//             reversed[i++] = byte(48 + remainder);\n//         }\n//         bytes memory s = new bytes(i + 1);\n//         for (uint j = 0; j <= i; j++) {\n//             s[j] = reversed[i - j];\n//         }\n//         str = string(s);\n//     }\n\n  /*//Attach the string _predictionHash to the end of the prediction and see if it has the same\n  function revealBet(uint _prediction, string memory _password) public {\n\n      require (now / auctionLength != currentDay);\n\n      //check whether the hash prediction inserted when the bet submitted is the same\n      //as the string concat of prediction + predictionHash\n      //e.g. 4200Hello123\n\n      string memory predictionStr;\n\n      string hashStr;  = predictionStr.toSlice().concat(_password.toSlice());\n\n      if (agent_details[msg.sender][currentDay--].hash_prediction == keccak256(hashStr)) {\n          agent_details[msg.sender][currentDay--].prediction = _prediction;\n          agent_details[msg.sender][currentDay--].bet_hashes_correct = true;\n\n      } else {\n          //if the hashes do not match then set the agent prediction to equal to 0 instead\n          agent_details[msg.sender][currentDay--].prediction = 0;\n          agent_details[msg.sender][currentDay--].bet_hashes_correct = false;\n      }\n\n  }*/\n\n\n\n  //need sorted list for how close the\n  //?? call this function when calling withdraw function ??\n  function checkIfInsideInterval() private {\n      currentDay = (now - secondInit) / auctionLength;\n      if (agent_details[msg.sender][currentDay--].prediction <= round_info[currentDay--].higherInterval &&\n      agent_details[msg.sender][currentDay--].prediction >= round_info[currentDay--].lowerInterval) {\n          agent_details[msg.sender][currentDay--].insideInterval = true;\n          round_info[currentDay--].number_agent_inside_interval += 1;\n      }\n\n  }\n\n  //calculate the relativeness value and set the relativeness in the struct at the end\n  //calculate by the inverse of the differences between the settlement_value and the guess\n  //then multiply it with the betAmount\n  function calculateRelativeBetAndCloseness() private {\n      currentDay = (now - secondInit) / auctionLength;\n      uint difference_from_settlement_value;\n      if (round_info[currentDay--].settlement_value > agent_details[msg.sender][currentDay--].prediction) {\n          difference_from_settlement_value = round_info[currentDay--].settlement_value - agent_details[msg.sender][currentDay--].prediction;\n      } else {\n          difference_from_settlement_value = agent_details[msg.sender][currentDay--].prediction - round_info[currentDay--].settlement_value;\n      }\n\n      uint _relativeness = (1 / difference_from_settlement_value) * agent_details[msg.sender][currentDay--].betAmount;\n\n      //maybe needs to have a parameter name relative\n\n      agent_details[msg.sender][currentDay--].relativeness = _relativeness;\n      round_info[currentDay--].sum_relativeness += _relativeness;\n\n\n  }\n\n  //Can only calculate the reward on the day you withdraw\n  function calculateReward() private {\n      currentDay = (now - secondInit) / auctionLength;\n      uint _reward = (agent_details[msg.sender][currentDay-2].relativeness / round_info[currentDay-2].sum_relativeness) * round_info[currentDay-2].total_pot;\n      agent_details[msg.sender][currentDay-2].reward = _reward;\n  }\n\n\n}\n",
  "sourcePath": "/Users/Liu/softeng27/src/Smart_Contract/contracts/DemandBid.sol",
  "compiler": {
    "name": "solc",
    "version": "0.5.8+commit.23d335f2.Emscripten.clang"
  },
  "schemaVersion": "3.0.17",
  "updatedAt": "2019-11-07T21:56:57.321Z",
  "networkType": "ethereum",
  "devdoc": {
    "methods": {}
  },
  "userdoc": {
    "methods": {}
  }
}